{
  "_format": "hh-sol-artifact-1",
  "contractName": "Domains",
  "sourceName": "contracts/Domains.sol",
  "abi": [
    {
      "inputs": [
        {
          "internalType": "string",
          "name": "_tld",
          "type": "string"
        }
      ],
      "stateMutability": "payable",
      "type": "constructor"
    },
    {
      "inputs": [],
      "name": "AlreadyRegistered",
      "type": "error"
    },
    {
      "inputs": [
        {
          "internalType": "string",
          "name": "name",
          "type": "string"
        }
      ],
      "name": "InvalidName",
      "type": "error"
    },
    {
      "inputs": [],
      "name": "Unauthorized",
      "type": "error"
    },
    {
      "anonymous": false,
      "inputs": [
        {
          "indexed": true,
          "internalType": "address",
          "name": "owner",
          "type": "address"
        },
        {
          "indexed": true,
          "internalType": "address",
          "name": "approved",
          "type": "address"
        },
        {
          "indexed": true,
          "internalType": "uint256",
          "name": "tokenId",
          "type": "uint256"
        }
      ],
      "name": "Approval",
      "type": "event"
    },
    {
      "anonymous": false,
      "inputs": [
        {
          "indexed": true,
          "internalType": "address",
          "name": "owner",
          "type": "address"
        },
        {
          "indexed": true,
          "internalType": "address",
          "name": "operator",
          "type": "address"
        },
        {
          "indexed": false,
          "internalType": "bool",
          "name": "approved",
          "type": "bool"
        }
      ],
      "name": "ApprovalForAll",
      "type": "event"
    },
    {
      "anonymous": false,
      "inputs": [
        {
          "indexed": true,
          "internalType": "address",
          "name": "from",
          "type": "address"
        },
        {
          "indexed": true,
          "internalType": "address",
          "name": "to",
          "type": "address"
        },
        {
          "indexed": true,
          "internalType": "uint256",
          "name": "tokenId",
          "type": "uint256"
        }
      ],
      "name": "Transfer",
      "type": "event"
    },
    {
      "inputs": [
        {
          "internalType": "address",
          "name": "to",
          "type": "address"
        },
        {
          "internalType": "uint256",
          "name": "tokenId",
          "type": "uint256"
        }
      ],
      "name": "approve",
      "outputs": [],
      "stateMutability": "nonpayable",
      "type": "function"
    },
    {
      "inputs": [
        {
          "internalType": "address",
          "name": "owner",
          "type": "address"
        }
      ],
      "name": "balanceOf",
      "outputs": [
        {
          "internalType": "uint256",
          "name": "",
          "type": "uint256"
        }
      ],
      "stateMutability": "view",
      "type": "function"
    },
    {
      "inputs": [
        {
          "internalType": "string",
          "name": "",
          "type": "string"
        }
      ],
      "name": "domains",
      "outputs": [
        {
          "internalType": "address",
          "name": "",
          "type": "address"
        }
      ],
      "stateMutability": "view",
      "type": "function"
    },
    {
      "inputs": [
        {
          "internalType": "string",
          "name": "name",
          "type": "string"
        }
      ],
      "name": "getAddress",
      "outputs": [
        {
          "internalType": "address",
          "name": "",
          "type": "address"
        }
      ],
      "stateMutability": "view",
      "type": "function"
    },
    {
      "inputs": [],
      "name": "getAllNames",
      "outputs": [
        {
          "internalType": "string[]",
          "name": "",
          "type": "string[]"
        }
      ],
      "stateMutability": "view",
      "type": "function"
    },
    {
      "inputs": [
        {
          "internalType": "uint256",
          "name": "tokenId",
          "type": "uint256"
        }
      ],
      "name": "getApproved",
      "outputs": [
        {
          "internalType": "address",
          "name": "",
          "type": "address"
        }
      ],
      "stateMutability": "view",
      "type": "function"
    },
    {
      "inputs": [
        {
          "internalType": "string",
          "name": "name",
          "type": "string"
        }
      ],
      "name": "getRecord",
      "outputs": [
        {
          "internalType": "string",
          "name": "",
          "type": "string"
        }
      ],
      "stateMutability": "view",
      "type": "function"
    },
    {
      "inputs": [
        {
          "internalType": "address",
          "name": "owner",
          "type": "address"
        },
        {
          "internalType": "address",
          "name": "operator",
          "type": "address"
        }
      ],
      "name": "isApprovedForAll",
      "outputs": [
        {
          "internalType": "bool",
          "name": "",
          "type": "bool"
        }
      ],
      "stateMutability": "view",
      "type": "function"
    },
    {
      "inputs": [],
      "name": "isOwner",
      "outputs": [
        {
          "internalType": "bool",
          "name": "",
          "type": "bool"
        }
      ],
      "stateMutability": "view",
      "type": "function"
    },
    {
      "inputs": [],
      "name": "name",
      "outputs": [
        {
          "internalType": "string",
          "name": "",
          "type": "string"
        }
      ],
      "stateMutability": "view",
      "type": "function"
    },
    {
      "inputs": [
        {
          "internalType": "uint256",
          "name": "",
          "type": "uint256"
        }
      ],
      "name": "names",
      "outputs": [
        {
          "internalType": "string",
          "name": "",
          "type": "string"
        }
      ],
      "stateMutability": "view",
      "type": "function"
    },
    {
      "inputs": [],
      "name": "owner",
      "outputs": [
        {
          "internalType": "address payable",
          "name": "",
          "type": "address"
        }
      ],
      "stateMutability": "view",
      "type": "function"
    },
    {
      "inputs": [
        {
          "internalType": "uint256",
          "name": "tokenId",
          "type": "uint256"
        }
      ],
      "name": "ownerOf",
      "outputs": [
        {
          "internalType": "address",
          "name": "",
          "type": "address"
        }
      ],
      "stateMutability": "view",
      "type": "function"
    },
    {
      "inputs": [
        {
          "internalType": "string",
          "name": "name",
          "type": "string"
        }
      ],
      "name": "price",
      "outputs": [
        {
          "internalType": "uint256",
          "name": "",
          "type": "uint256"
        }
      ],
      "stateMutability": "pure",
      "type": "function"
    },
    {
      "inputs": [
        {
          "internalType": "string",
          "name": "",
          "type": "string"
        }
      ],
      "name": "records",
      "outputs": [
        {
          "internalType": "string",
          "name": "",
          "type": "string"
        }
      ],
      "stateMutability": "view",
      "type": "function"
    },
    {
      "inputs": [
        {
          "internalType": "string",
          "name": "name",
          "type": "string"
        }
      ],
      "name": "register",
      "outputs": [],
      "stateMutability": "payable",
      "type": "function"
    },
    {
      "inputs": [
        {
          "internalType": "address",
          "name": "from",
          "type": "address"
        },
        {
          "internalType": "address",
          "name": "to",
          "type": "address"
        },
        {
          "internalType": "uint256",
          "name": "tokenId",
          "type": "uint256"
        }
      ],
      "name": "safeTransferFrom",
      "outputs": [],
      "stateMutability": "nonpayable",
      "type": "function"
    },
    {
      "inputs": [
        {
          "internalType": "address",
          "name": "from",
          "type": "address"
        },
        {
          "internalType": "address",
          "name": "to",
          "type": "address"
        },
        {
          "internalType": "uint256",
          "name": "tokenId",
          "type": "uint256"
        },
        {
          "internalType": "bytes",
          "name": "data",
          "type": "bytes"
        }
      ],
      "name": "safeTransferFrom",
      "outputs": [],
      "stateMutability": "nonpayable",
      "type": "function"
    },
    {
      "inputs": [
        {
          "internalType": "address",
          "name": "operator",
          "type": "address"
        },
        {
          "internalType": "bool",
          "name": "approved",
          "type": "bool"
        }
      ],
      "name": "setApprovalForAll",
      "outputs": [],
      "stateMutability": "nonpayable",
      "type": "function"
    },
    {
      "inputs": [
        {
          "internalType": "string",
          "name": "name",
          "type": "string"
        },
        {
          "internalType": "string",
          "name": "record",
          "type": "string"
        }
      ],
      "name": "setRecord",
      "outputs": [],
      "stateMutability": "nonpayable",
      "type": "function"
    },
    {
      "inputs": [
        {
          "internalType": "bytes4",
          "name": "interfaceId",
          "type": "bytes4"
        }
      ],
      "name": "supportsInterface",
      "outputs": [
        {
          "internalType": "bool",
          "name": "",
          "type": "bool"
        }
      ],
      "stateMutability": "view",
      "type": "function"
    },
    {
      "inputs": [],
      "name": "symbol",
      "outputs": [
        {
          "internalType": "string",
          "name": "",
          "type": "string"
        }
      ],
      "stateMutability": "view",
      "type": "function"
    },
    {
      "inputs": [],
      "name": "tld",
      "outputs": [
        {
          "internalType": "string",
          "name": "",
          "type": "string"
        }
      ],
      "stateMutability": "view",
      "type": "function"
    },
    {
      "inputs": [
        {
          "internalType": "uint256",
          "name": "tokenId",
          "type": "uint256"
        }
      ],
      "name": "tokenURI",
      "outputs": [
        {
          "internalType": "string",
          "name": "",
          "type": "string"
        }
      ],
      "stateMutability": "view",
      "type": "function"
    },
    {
      "inputs": [
        {
          "internalType": "address",
          "name": "from",
          "type": "address"
        },
        {
          "internalType": "address",
          "name": "to",
          "type": "address"
        },
        {
          "internalType": "uint256",
          "name": "tokenId",
          "type": "uint256"
        }
      ],
      "name": "transferFrom",
      "outputs": [],
      "stateMutability": "nonpayable",
      "type": "function"
    },
    {
      "inputs": [
        {
          "internalType": "string",
          "name": "name",
          "type": "string"
        }
      ],
      "name": "valid",
      "outputs": [
        {
          "internalType": "bool",
          "name": "",
          "type": "bool"
        }
      ],
      "stateMutability": "pure",
      "type": "function"
    },
    {
      "inputs": [],
      "name": "withdraw",
      "outputs": [],
      "stateMutability": "nonpayable",
      "type": "function"
    }
  ],
  "bytecode": "0x6080604052604051806101c001604052806101868152602001620054f26101869139600a908162000031919062000594565b506040518060400160405280600481526020017ff09f9a8000000000000000000000000000000000000000000000000000000000815250600b908162000078919062000594565b50604051806101c001604052806101818152602001620056786101819139600c9081620000a6919062000594565b506040518060400160405280600d81526020017f3c2f746578743e3c2f7376673e00000000000000000000000000000000000000815250600d9081620000ed919062000594565b50604051620057f9380380620057f98339818101604052810190620001139190620007e9565b6040518060400160405280601181526020017f53686970204e616d6520536572766963650000000000000000000000000000008152506040518060400160405280600381526020017f534e530000000000000000000000000000000000000000000000000000000000815250816000908162000190919062000594565b508060019081620001a2919062000594565b50505033600760006101000a81548173ffffffffffffffffffffffffffffffffffffffff021916908373ffffffffffffffffffffffffffffffffffffffff1602179055508060099081620001f7919062000594565b50620002446040518060400160405280601881526020017f2573206e616d652073657276696365206465706c6f7965640000000000000000815250826200024b60201b62001b321760201c565b50620008c7565b620002ed8282604051602401620002649291906200088c565b6040516020818303038152906040527f4b5c4277000000000000000000000000000000000000000000000000000000007bffffffffffffffffffffffffffffffffffffffffffffffffffffffff19166020820180517bffffffffffffffffffffffffffffffffffffffffffffffffffffffff8381831617835250505050620002f160201b60201c565b5050565b60008151905060006a636f6e736f6c652e6c6f679050602083016000808483855afa5050505050565b600081519050919050565b7f4e487b7100000000000000000000000000000000000000000000000000000000600052604160045260246000fd5b7f4e487b7100000000000000000000000000000000000000000000000000000000600052602260045260246000fd5b600060028204905060018216806200039c57607f821691505b602082108103620003b257620003b162000354565b5b50919050565b60008190508160005260206000209050919050565b60006020601f8301049050919050565b600082821b905092915050565b6000600883026200041c7fffffffffffffffffffffffffffffffffffffffffffffffffffffffffffffffff82620003dd565b620004288683620003dd565b95508019841693508086168417925050509392505050565b6000819050919050565b6000819050919050565b6000620004756200046f620004698462000440565b6200044a565b62000440565b9050919050565b6000819050919050565b620004918362000454565b620004a9620004a0826200047c565b848454620003ea565b825550505050565b600090565b620004c0620004b1565b620004cd81848462000486565b505050565b5b81811015620004f557620004e9600082620004b6565b600181019050620004d3565b5050565b601f82111562000544576200050e81620003b8565b6200051984620003cd565b8101602085101562000529578190505b620005416200053885620003cd565b830182620004d2565b50505b505050565b600082821c905092915050565b6000620005696000198460080262000549565b1980831691505092915050565b600062000584838362000556565b9150826002028217905092915050565b6200059f826200031a565b67ffffffffffffffff811115620005bb57620005ba62000325565b5b620005c7825462000383565b620005d4828285620004f9565b600060209050601f8311600181146200060c5760008415620005f7578287015190505b62000603858262000576565b86555062000673565b601f1984166200061c86620003b8565b60005b8281101562000646578489015182556001820191506020850194506020810190506200061f565b8683101562000666578489015162000662601f89168262000556565b8355505b6001600288020188555050505b505050505050565b6000604051905090565b600080fd5b600080fd5b600080fd5b600080fd5b6000601f19601f8301169050919050565b620006b58262000699565b810181811067ffffffffffffffff82111715620006d757620006d662000325565b5b80604052505050565b6000620006ec6200067b565b9050620006fa8282620006aa565b919050565b600067ffffffffffffffff8211156200071d576200071c62000325565b5b620007288262000699565b9050602081019050919050565b60005b838110156200075557808201518184015260208101905062000738565b8381111562000765576000848401525b50505050565b6000620007826200077c84620006ff565b620006e0565b905082815260208101848484011115620007a157620007a062000694565b5b620007ae84828562000735565b509392505050565b600082601f830112620007ce57620007cd6200068f565b5b8151620007e08482602086016200076b565b91505092915050565b60006020828403121562000802576200080162000685565b5b600082015167ffffffffffffffff8111156200082357620008226200068a565b5b6200083184828501620007b6565b91505092915050565b600082825260208201905092915050565b600062000858826200031a565b6200086481856200083a565b93506200087681856020860162000735565b620008818162000699565b840191505092915050565b60006040820190508181036000830152620008a881856200084b565b90508181036020830152620008be81846200084b565b90509392505050565b614c1b80620008d76000396000f3fe60806040526004361061019c5760003560e01c806370a08231116100ec578063bf40fac11161008a578063e985e9c511610064578063e985e9c514610624578063f2c298be14610661578063fb825e5f1461067d578063fe2c6198146106a85761019c565b8063bf40fac114610581578063c1880a98146105be578063c87b56dd146105e75761019c565b806395d89b41116100c657806395d89b41146104c75780639791c097146104f2578063a22cb4651461052f578063b88d4fde146105585761019c565b806370a08231146104345780638da5cb5b146104715780638f32d59b1461049c5761019c565b8063264492351161015957806342842e0e1161013357806342842e0e146103545780634622ab031461037d578063541e771d146103ba5780636352211e146103f75761019c565b806326449235146102d55780632d551432146103125780633ccfd60b1461033d5761019c565b806301ffc9a7146101a157806306fdde03146101de578063081812fc14610209578063095ea7b31461024657806311dd88451461026f57806323b872dd146102ac575b600080fd5b3480156101ad57600080fd5b506101c860048036038101906101c39190612ea4565b6106e5565b6040516101d59190612eec565b60405180910390f35b3480156101ea57600080fd5b506101f36107c7565b6040516102009190612fa0565b60405180910390f35b34801561021557600080fd5b50610230600480360381019061022b9190612ff8565b610859565b60405161023d9190613066565b60405180910390f35b34801561025257600080fd5b5061026d600480360381019061026891906130ad565b61089f565b005b34801561027b57600080fd5b5061029660048036038101906102919190613152565b6109b6565b6040516102a39190612fa0565b60405180910390f35b3480156102b857600080fd5b506102d360048036038101906102ce919061319f565b610a69565b005b3480156102e157600080fd5b506102fc60048036038101906102f79190613322565b610ac9565b6040516103099190613066565b60405180910390f35b34801561031e57600080fd5b50610327610b12565b6040516103349190612fa0565b60405180910390f35b34801561034957600080fd5b50610352610ba0565b005b34801561036057600080fd5b5061037b6004803603810190610376919061319f565b610c66565b005b34801561038957600080fd5b506103a4600480360381019061039f9190612ff8565b610c86565b6040516103b19190612fa0565b60405180910390f35b3480156103c657600080fd5b506103e160048036038101906103dc9190613322565b610d26565b6040516103ee9190612fa0565b60405180910390f35b34801561040357600080fd5b5061041e60048036038101906104199190612ff8565b610ddc565b60405161042b9190613066565b60405180910390f35b34801561044057600080fd5b5061045b6004803603810190610456919061336b565b610e8d565b60405161046891906133a7565b60405180910390f35b34801561047d57600080fd5b50610486610f44565b60405161049391906133e3565b60405180910390f35b3480156104a857600080fd5b506104b1610f6a565b6040516104be9190612eec565b60405180910390f35b3480156104d357600080fd5b506104dc610fc2565b6040516104e99190612fa0565b60405180910390f35b3480156104fe57600080fd5b5061051960048036038101906105149190613152565b611054565b6040516105269190612eec565b60405180910390f35b34801561053b57600080fd5b506105566004803603810190610551919061342a565b611108565b005b34801561056457600080fd5b5061057f600480360381019061057a919061350b565b61111e565b005b34801561058d57600080fd5b506105a860048036038101906105a39190613152565b611180565b6040516105b59190613066565b60405180910390f35b3480156105ca57600080fd5b506105e560048036038101906105e0919061358e565b6111cb565b005b3480156105f357600080fd5b5061060e60048036038101906106099190612ff8565b6112a6565b60405161061b9190612fa0565b60405180910390f35b34801561063057600080fd5b5061064b6004803603810190610646919061360f565b6113b8565b6040516106589190612eec565b60405180910390f35b61067b60048036038101906106769190613152565b61144c565b005b34801561068957600080fd5b506106926118d0565b60405161069f919061375b565b60405180910390f35b3480156106b457600080fd5b506106cf60048036038101906106ca9190613152565b611a91565b6040516106dc91906133a7565b60405180910390f35b60007f80ac58cd000000000000000000000000000000000000000000000000000000007bffffffffffffffffffffffffffffffffffffffffffffffffffffffff1916827bffffffffffffffffffffffffffffffffffffffffffffffffffffffff191614806107b057507f5b5e139f000000000000000000000000000000000000000000000000000000007bffffffffffffffffffffffffffffffffffffffffffffffffffffffff1916827bffffffffffffffffffffffffffffffffffffffffffffffffffffffff1916145b806107c057506107bf82611bce565b5b9050919050565b6060600080546107d6906137ac565b80601f0160208091040260200160405190810160405280929190818152602001828054610802906137ac565b801561084f5780601f106108245761010080835404028352916020019161084f565b820191906000526020600020905b81548152906001019060200180831161083257829003601f168201915b5050505050905090565b600061086482611c38565b6004600083815260200190815260200160002060009054906101000a900473ffffffffffffffffffffffffffffffffffffffff169050919050565b60006108aa82610ddc565b90508073ffffffffffffffffffffffffffffffffffffffff168373ffffffffffffffffffffffffffffffffffffffff160361091a576040517f08c379a00000000000000000000000000000000000000000000000000000000081526004016109119061384f565b60405180910390fd5b8073ffffffffffffffffffffffffffffffffffffffff16610939611c83565b73ffffffffffffffffffffffffffffffffffffffff161480610968575061096781610962611c83565b6113b8565b5b6109a7576040517f08c379a000000000000000000000000000000000000000000000000000000000815260040161099e906138e1565b60405180910390fd5b6109b18383611c8b565b505050565b6060600f83836040516109ca929190613931565b908152602001604051809103902080546109e3906137ac565b80601f0160208091040260200160405190810160405280929190818152602001828054610a0f906137ac565b8015610a5c5780601f10610a3157610100808354040283529160200191610a5c565b820191906000526020600020905b815481529060010190602001808311610a3f57829003601f168201915b5050505050905092915050565b610a7a610a74611c83565b82611d44565b610ab9576040517f08c379a0000000000000000000000000000000000000000000000000000000008152600401610ab0906139bc565b60405180910390fd5b610ac4838383611dd9565b505050565b600e818051602081018201805184825260208301602085012081835280955050505050506000915054906101000a900473ffffffffffffffffffffffffffffffffffffffff1681565b60098054610b1f906137ac565b80601f0160208091040260200160405190810160405280929190818152602001828054610b4b906137ac565b8015610b985780601f10610b6d57610100808354040283529160200191610b98565b820191906000526020600020905b815481529060010190602001808311610b7b57829003601f168201915b505050505081565b610ba8610f6a565b610bb157600080fd5b600047905060003373ffffffffffffffffffffffffffffffffffffffff1682604051610bdc90613a0d565b60006040518083038185875af1925050503d8060008114610c19576040519150601f19603f3d011682016040523d82523d6000602084013e610c1e565b606091505b5050905080610c62576040517f08c379a0000000000000000000000000000000000000000000000000000000008152600401610c5990613a6e565b60405180910390fd5b5050565b610c818383836040518060200160405280600081525061111e565b505050565b60106020528060005260406000206000915090508054610ca5906137ac565b80601f0160208091040260200160405190810160405280929190818152602001828054610cd1906137ac565b8015610d1e5780601f10610cf357610100808354040283529160200191610d1e565b820191906000526020600020905b815481529060010190602001808311610d0157829003601f168201915b505050505081565b600f818051602081018201805184825260208301602085012081835280955050505050506000915090508054610d5b906137ac565b80601f0160208091040260200160405190810160405280929190818152602001828054610d87906137ac565b8015610dd45780601f10610da957610100808354040283529160200191610dd4565b820191906000526020600020905b815481529060010190602001808311610db757829003601f168201915b505050505081565b6000806002600084815260200190815260200160002060009054906101000a900473ffffffffffffffffffffffffffffffffffffffff169050600073ffffffffffffffffffffffffffffffffffffffff168173ffffffffffffffffffffffffffffffffffffffff1603610e84576040517f08c379a0000000000000000000000000000000000000000000000000000000008152600401610e7b90613ada565b60405180910390fd5b80915050919050565b60008073ffffffffffffffffffffffffffffffffffffffff168273ffffffffffffffffffffffffffffffffffffffff1603610efd576040517f08c379a0000000000000000000000000000000000000000000000000000000008152600401610ef490613b6c565b60405180910390fd5b600360008373ffffffffffffffffffffffffffffffffffffffff1673ffffffffffffffffffffffffffffffffffffffff168152602001908152602001600020549050919050565b600760009054906101000a900473ffffffffffffffffffffffffffffffffffffffff1681565b6000600760009054906101000a900473ffffffffffffffffffffffffffffffffffffffff1673ffffffffffffffffffffffffffffffffffffffff163373ffffffffffffffffffffffffffffffffffffffff1614905090565b606060018054610fd1906137ac565b80601f0160208091040260200160405190810160405280929190818152602001828054610ffd906137ac565b801561104a5780601f1061101f5761010080835404028352916020019161104a565b820191906000526020600020905b81548152906001019060200180831161102d57829003601f168201915b5050505050905090565b600060036110a584848080601f016020809104026020016040519081016040528093929190818152602001838380828437600081840152601f19601f8201169050808301925050505050505061203f565b101580156111005750600a6110fd84848080601f016020809104026020016040519081016040528093929190818152602001838380828437600081840152601f19601f8201169050808301925050505050505061203f565b11155b905092915050565b61111a611113611c83565b83836121f4565b5050565b61112f611129611c83565b83611d44565b61116e576040517f08c379a0000000000000000000000000000000000000000000000000000000008152600401611165906139bc565b60405180910390fd5b61117a84848484612360565b50505050565b6000600e8383604051611194929190613931565b908152602001604051809103902060009054906101000a900473ffffffffffffffffffffffffffffffffffffffff16905092915050565b600e84846040516111dd929190613931565b908152602001604051809103902060009054906101000a900473ffffffffffffffffffffffffffffffffffffffff1673ffffffffffffffffffffffffffffffffffffffff163373ffffffffffffffffffffffffffffffffffffffff1614611270576040517f82b4290000000000000000000000000000000000000000000000000000000000815260040160405180910390fd5b8181600f8686604051611284929190613931565b9081526020016040518091039020918261129f929190613d43565b5050505050565b60606112b182611c38565b60006006600084815260200190815260200160002080546112d1906137ac565b80601f01602080910402602001604051908101604052809291908181526020018280546112fd906137ac565b801561134a5780601f1061131f5761010080835404028352916020019161134a565b820191906000526020600020905b81548152906001019060200180831161132d57829003601f168201915b50505050509050600061135b6123bc565b905060008151036113705781925050506113b3565b6000825111156113a557808260405160200161138d929190613e44565b604051602081830303815290604052925050506113b3565b6113ae846123d3565b925050505b919050565b6000600560008473ffffffffffffffffffffffffffffffffffffffff1673ffffffffffffffffffffffffffffffffffffffff16815260200190815260200160002060008373ffffffffffffffffffffffffffffffffffffffff1673ffffffffffffffffffffffffffffffffffffffff16815260200190815260200160002060009054906101000a900460ff16905092915050565b600073ffffffffffffffffffffffffffffffffffffffff16600e8383604051611476929190613931565b908152602001604051809103902060009054906101000a900473ffffffffffffffffffffffffffffffffffffffff1673ffffffffffffffffffffffffffffffffffffffff16146114f2576040517f3a81d6fc00000000000000000000000000000000000000000000000000000000815260040160405180910390fd5b6114fc8282611054565b61153f5781816040517f7f19f48d000000000000000000000000000000000000000000000000000000008152600401611536929190613e95565b60405180910390fd5b600061154b8383611a91565b905080341015611590576040517f08c379a000000000000000000000000000000000000000000000000000000000815260040161158790613f05565b60405180910390fd5b6000838360096040516020016115a893929190613ff4565b60405160208183030381529060405290506000600a600b600c84600d6040516020016115d8959493929190614025565b604051602081830303815290604052905060006115f5600861243b565b9050600061164687878080601f016020809104026020016040519081016040528093929190818152602001838380828437600081840152601f19601f8201169050808301925050505050505061203f565b9050600061165382612449565b9050611747604051806060016040528060218152602001614bc56021913989898080601f016020809104026020016040519081016040528093929190818152602001838380828437600081840152601f19601f82011690508083019250505050505050600980546116c3906137ac565b80601f01602080910402602001604051908101604052809291908181526020018280546116ef906137ac565b801561173c5780601f106117115761010080835404028352916020019161173c565b820191906000526020600020905b81548152906001019060200180831161171f57829003601f168201915b5050505050866125a9565b600061177d866117568761264b565b84604051602001611769939291906141ec565b60405160208183030381529060405261264b565b90506000816040516020016117929190614295565b60405160208183030381529060405290506117c4604051806060016040528060398152602001614aea603991396127e2565b6118036040518060400160405280600e81526020017f46696e616c20746f6b656e55524900000000000000000000000000000000000081525082611b32565b611824604051806060016040528060398152602001614b23603991396127e2565b61182e338661287b565b6118388582612899565b33600e8b8b60405161184b929190613931565b908152602001604051809103902060006101000a81548173ffffffffffffffffffffffffffffffffffffffff021916908373ffffffffffffffffffffffffffffffffffffffff16021790555089896010600088815260200190815260200160002091826118b9929190613d43565b506118c46008612906565b50505050505050505050565b60606118f3604051806060016040528060298152602001614b9c602991396127e2565b60006118ff600861243b565b67ffffffffffffffff811115611918576119176131f7565b5b60405190808252806020026020018201604052801561194b57816020015b60608152602001906001900390816119365790505b50905060005b61195b600861243b565b811015611a8957601060008281526020019081526020016000208054611980906137ac565b80601f01602080910402602001604051908101604052809291908181526020018280546119ac906137ac565b80156119f95780601f106119ce576101008083540402835291602001916119f9565b820191906000526020600020905b8154815290600101906020018083116119dc57829003601f168201915b5050505050828281518110611a1157611a106142b7565b5b6020026020010181905250611a766040518060400160405280601781526020017f4e616d6520666f7220746f6b656e20256420697320257300000000000000000081525082848481518110611a6957611a686142b7565b5b602002602001015161291c565b8080611a8190614315565b915050611951565b508091505090565b600080611ae184848080601f016020809104026020016040519081016040528093929190818152602001838380828437600081840152601f19601f8201169050808301925050505050505061203f565b905060008111611af057600080fd5b60038103611b085766b1a2bc2ec50000915050611b2c565b60048103611b2057666a94d74f430000915050611b2c565b662386f26fc100009150505b92915050565b611bca8282604051602401611b4892919061435d565b6040516020818303038152906040527f4b5c4277000000000000000000000000000000000000000000000000000000007bffffffffffffffffffffffffffffffffffffffffffffffffffffffff19166020820180517bffffffffffffffffffffffffffffffffffffffffffffffffffffffff83818316178352505050506129bb565b5050565b60007f01ffc9a7000000000000000000000000000000000000000000000000000000007bffffffffffffffffffffffffffffffffffffffffffffffffffffffff1916827bffffffffffffffffffffffffffffffffffffffffffffffffffffffff1916149050919050565b611c41816129e4565b611c80576040517f08c379a0000000000000000000000000000000000000000000000000000000008152600401611c7790613ada565b60405180910390fd5b50565b600033905090565b816004600083815260200190815260200160002060006101000a81548173ffffffffffffffffffffffffffffffffffffffff021916908373ffffffffffffffffffffffffffffffffffffffff160217905550808273ffffffffffffffffffffffffffffffffffffffff16611cfe83610ddc565b73ffffffffffffffffffffffffffffffffffffffff167f8c5be1e5ebec7d5bd14f71427d1e84f3dd0314c0f7b2291e5b200ac8c7c3b92560405160405180910390a45050565b600080611d5083610ddc565b90508073ffffffffffffffffffffffffffffffffffffffff168473ffffffffffffffffffffffffffffffffffffffff161480611d925750611d9181856113b8565b5b80611dd057508373ffffffffffffffffffffffffffffffffffffffff16611db884610859565b73ffffffffffffffffffffffffffffffffffffffff16145b91505092915050565b8273ffffffffffffffffffffffffffffffffffffffff16611df982610ddc565b73ffffffffffffffffffffffffffffffffffffffff1614611e4f576040517f08c379a0000000000000000000000000000000000000000000000000000000008152600401611e4690614406565b60405180910390fd5b600073ffffffffffffffffffffffffffffffffffffffff168273ffffffffffffffffffffffffffffffffffffffff1603611ebe576040517f08c379a0000000000000000000000000000000000000000000000000000000008152600401611eb590614498565b60405180910390fd5b611ec9838383612a50565b611ed4600082611c8b565b6001600360008573ffffffffffffffffffffffffffffffffffffffff1673ffffffffffffffffffffffffffffffffffffffff1681526020019081526020016000206000828254611f2491906144b8565b925050819055506001600360008473ffffffffffffffffffffffffffffffffffffffff1673ffffffffffffffffffffffffffffffffffffffff1681526020019081526020016000206000828254611f7b91906144ec565b92505081905550816002600083815260200190815260200160002060006101000a81548173ffffffffffffffffffffffffffffffffffffffff021916908373ffffffffffffffffffffffffffffffffffffffff160217905550808273ffffffffffffffffffffffffffffffffffffffff168473ffffffffffffffffffffffffffffffffffffffff167fddf252ad1be2c89b69c2b068fc378daa952ba7f163c4a11628f55a4df523b3ef60405160405180910390a461203a838383612a55565b505050565b60008060008084519050600092505b808210156121e957600085838151811061206b5761206a6142b7565b5b602001015160f81c60f81b9050608060f81b817effffffffffffffffffffffffffffffffffffffffffffffffffffffffffffff191610156120ba576001836120b391906144ec565b92506121d5565b60e060f81b817effffffffffffffffffffffffffffffffffffffffffffffffffffffffffffff191610156120fc576002836120f591906144ec565b92506121d4565b60f060f81b817effffffffffffffffffffffffffffffffffffffffffffffffffffffffffffff1916101561213e5760038361213791906144ec565b92506121d3565b60f8801b817effffffffffffffffffffffffffffffffffffffffffffffffffffffffffffff1916101561217f5760048361217891906144ec565b92506121d2565b60fc60f81b817effffffffffffffffffffffffffffffffffffffffffffffffffffffffffffff191610156121c1576005836121ba91906144ec565b92506121d1565b6006836121ce91906144ec565b92505b5b5b5b5b5082806121e190614315565b93505061204e565b829350505050919050565b8173ffffffffffffffffffffffffffffffffffffffff168373ffffffffffffffffffffffffffffffffffffffff1603612262576040517f08c379a00000000000000000000000000000000000000000000000000000000081526004016122599061458e565b60405180910390fd5b80600560008573ffffffffffffffffffffffffffffffffffffffff1673ffffffffffffffffffffffffffffffffffffffff16815260200190815260200160002060008473ffffffffffffffffffffffffffffffffffffffff1673ffffffffffffffffffffffffffffffffffffffff16815260200190815260200160002060006101000a81548160ff0219169083151502179055508173ffffffffffffffffffffffffffffffffffffffff168373ffffffffffffffffffffffffffffffffffffffff167f17307eab39ab6107e8899845ad3d59bd9653f200f220920489ca2b5937696c31836040516123539190612eec565b60405180910390a3505050565b61236b848484611dd9565b61237784848484612a5a565b6123b6576040517f08c379a00000000000000000000000000000000000000000000000000000000081526004016123ad90614620565b60405180910390fd5b50505050565b606060405180602001604052806000815250905090565b60606123de82611c38565b60006123e86123bc565b905060008151116124085760405180602001604052806000815250612433565b8061241284612449565b604051602001612423929190613e44565b6040516020818303038152906040525b915050919050565b600081600001549050919050565b606060008203612490576040518060400160405280600181526020017f300000000000000000000000000000000000000000000000000000000000000081525090506125a4565b600082905060005b600082146124c25780806124ab90614315565b915050600a826124bb919061466f565b9150612498565b60008167ffffffffffffffff8111156124de576124dd6131f7565b5b6040519080825280601f01601f1916602001820160405280156125105781602001600182028036833780820191505090505b5090505b6000851461259d5760018261252991906144b8565b9150600a8561253891906146a0565b603061254491906144ec565b60f81b81838151811061255a576125596142b7565b5b60200101907effffffffffffffffffffffffffffffffffffffffffffffffffffffffffffff1916908160001a905350600a85612596919061466f565b9450612514565b8093505050505b919050565b612645848484846040516024016125c394939291906146d1565b6040516020818303038152906040527f9fd009f5000000000000000000000000000000000000000000000000000000007bffffffffffffffffffffffffffffffffffffffffffffffffffffffff19166020820180517bffffffffffffffffffffffffffffffffffffffffffffffffffffffff83818316178352505050506129bb565b50505050565b60606000825190506000810361267357604051806020016040528060008152509150506127dd565b6000600360028361268491906144ec565b61268e919061466f565b600461269a919061472b565b905060006020826126ab91906144ec565b67ffffffffffffffff8111156126c4576126c36131f7565b5b6040519080825280601f01601f1916602001820160405280156126f65781602001600182028036833780820191505090505b5090506000604051806060016040528060408152602001614b5c604091399050600181016020830160005b8681101561279a5760038101905062ffffff818a015116603f8160121c168401518060081b905060ff603f83600c1c1686015116810190508060081b905060ff603f8360061c1686015116810190508060081b905060ff603f831686015116810190508060e01b90508084526004840193505050612721565b5060038606600181146127b457600281146127c4576127cf565b613d3d60f01b60028303526127cf565b603d60f81b60018303525b508484525050819450505050505b919050565b612878816040516024016127f69190612fa0565b6040516020818303038152906040527f41304fac000000000000000000000000000000000000000000000000000000007bffffffffffffffffffffffffffffffffffffffffffffffffffffffff19166020820180517bffffffffffffffffffffffffffffffffffffffffffffffffffffffff83818316178352505050506129bb565b50565b612895828260405180602001604052806000815250612be1565b5050565b6128a2826129e4565b6128e1576040517f08c379a00000000000000000000000000000000000000000000000000000000081526004016128d8906147f7565b60405180910390fd5b806006600084815260200190815260200160002090816129019190614817565b505050565b6001816000016000828254019250508190555050565b6129b6838383604051602401612934939291906148e9565b6040516020818303038152906040527fa3f5c739000000000000000000000000000000000000000000000000000000007bffffffffffffffffffffffffffffffffffffffffffffffffffffffff19166020820180517bffffffffffffffffffffffffffffffffffffffffffffffffffffffff83818316178352505050506129bb565b505050565b60008151905060006a636f6e736f6c652e6c6f679050602083016000808483855afa5050505050565b60008073ffffffffffffffffffffffffffffffffffffffff166002600084815260200190815260200160002060009054906101000a900473ffffffffffffffffffffffffffffffffffffffff1673ffffffffffffffffffffffffffffffffffffffff1614159050919050565b505050565b505050565b6000612a7b8473ffffffffffffffffffffffffffffffffffffffff16612c3c565b15612bd4578373ffffffffffffffffffffffffffffffffffffffff1663150b7a02612aa4611c83565b8786866040518563ffffffff1660e01b8152600401612ac69493929190614983565b6020604051808303816000875af1925050508015612b0257506040513d601f19601f82011682018060405250810190612aff91906149e4565b60015b612b84573d8060008114612b32576040519150601f19603f3d011682016040523d82523d6000602084013e612b37565b606091505b506000815103612b7c576040517f08c379a0000000000000000000000000000000000000000000000000000000008152600401612b7390614620565b60405180910390fd5b805181602001fd5b63150b7a0260e01b7bffffffffffffffffffffffffffffffffffffffffffffffffffffffff1916817bffffffffffffffffffffffffffffffffffffffffffffffffffffffff191614915050612bd9565b600190505b949350505050565b612beb8383612c5f565b612bf86000848484612a5a565b612c37576040517f08c379a0000000000000000000000000000000000000000000000000000000008152600401612c2e90614620565b60405180910390fd5b505050565b6000808273ffffffffffffffffffffffffffffffffffffffff163b119050919050565b600073ffffffffffffffffffffffffffffffffffffffff168273ffffffffffffffffffffffffffffffffffffffff1603612cce576040517f08c379a0000000000000000000000000000000000000000000000000000000008152600401612cc590614a5d565b60405180910390fd5b612cd7816129e4565b15612d17576040517f08c379a0000000000000000000000000000000000000000000000000000000008152600401612d0e90614ac9565b60405180910390fd5b612d2360008383612a50565b6001600360008473ffffffffffffffffffffffffffffffffffffffff1673ffffffffffffffffffffffffffffffffffffffff1681526020019081526020016000206000828254612d7391906144ec565b92505081905550816002600083815260200190815260200160002060006101000a81548173ffffffffffffffffffffffffffffffffffffffff021916908373ffffffffffffffffffffffffffffffffffffffff160217905550808273ffffffffffffffffffffffffffffffffffffffff16600073ffffffffffffffffffffffffffffffffffffffff167fddf252ad1be2c89b69c2b068fc378daa952ba7f163c4a11628f55a4df523b3ef60405160405180910390a4612e3460008383612a55565b5050565b6000604051905090565b600080fd5b600080fd5b60007fffffffff0000000000000000000000000000000000000000000000000000000082169050919050565b612e8181612e4c565b8114612e8c57600080fd5b50565b600081359050612e9e81612e78565b92915050565b600060208284031215612eba57612eb9612e42565b5b6000612ec884828501612e8f565b91505092915050565b60008115159050919050565b612ee681612ed1565b82525050565b6000602082019050612f016000830184612edd565b92915050565b600081519050919050565b600082825260208201905092915050565b60005b83811015612f41578082015181840152602081019050612f26565b83811115612f50576000848401525b50505050565b6000601f19601f8301169050919050565b6000612f7282612f07565b612f7c8185612f12565b9350612f8c818560208601612f23565b612f9581612f56565b840191505092915050565b60006020820190508181036000830152612fba8184612f67565b905092915050565b6000819050919050565b612fd581612fc2565b8114612fe057600080fd5b50565b600081359050612ff281612fcc565b92915050565b60006020828403121561300e5761300d612e42565b5b600061301c84828501612fe3565b91505092915050565b600073ffffffffffffffffffffffffffffffffffffffff82169050919050565b600061305082613025565b9050919050565b61306081613045565b82525050565b600060208201905061307b6000830184613057565b92915050565b61308a81613045565b811461309557600080fd5b50565b6000813590506130a781613081565b92915050565b600080604083850312156130c4576130c3612e42565b5b60006130d285828601613098565b92505060206130e385828601612fe3565b9150509250929050565b600080fd5b600080fd5b600080fd5b60008083601f840112613112576131116130ed565b5b8235905067ffffffffffffffff81111561312f5761312e6130f2565b5b60208301915083600182028301111561314b5761314a6130f7565b5b9250929050565b6000806020838503121561316957613168612e42565b5b600083013567ffffffffffffffff81111561318757613186612e47565b5b613193858286016130fc565b92509250509250929050565b6000806000606084860312156131b8576131b7612e42565b5b60006131c686828701613098565b93505060206131d786828701613098565b92505060406131e886828701612fe3565b9150509250925092565b600080fd5b7f4e487b7100000000000000000000000000000000000000000000000000000000600052604160045260246000fd5b61322f82612f56565b810181811067ffffffffffffffff8211171561324e5761324d6131f7565b5b80604052505050565b6000613261612e38565b905061326d8282613226565b919050565b600067ffffffffffffffff82111561328d5761328c6131f7565b5b61329682612f56565b9050602081019050919050565b82818337600083830152505050565b60006132c56132c084613272565b613257565b9050828152602081018484840111156132e1576132e06131f2565b5b6132ec8482856132a3565b509392505050565b600082601f830112613309576133086130ed565b5b81356133198482602086016132b2565b91505092915050565b60006020828403121561333857613337612e42565b5b600082013567ffffffffffffffff81111561335657613355612e47565b5b613362848285016132f4565b91505092915050565b60006020828403121561338157613380612e42565b5b600061338f84828501613098565b91505092915050565b6133a181612fc2565b82525050565b60006020820190506133bc6000830184613398565b92915050565b60006133cd82613025565b9050919050565b6133dd816133c2565b82525050565b60006020820190506133f860008301846133d4565b92915050565b61340781612ed1565b811461341257600080fd5b50565b600081359050613424816133fe565b92915050565b6000806040838503121561344157613440612e42565b5b600061344f85828601613098565b925050602061346085828601613415565b9150509250929050565b600067ffffffffffffffff821115613485576134846131f7565b5b61348e82612f56565b9050602081019050919050565b60006134ae6134a98461346a565b613257565b9050828152602081018484840111156134ca576134c96131f2565b5b6134d58482856132a3565b509392505050565b600082601f8301126134f2576134f16130ed565b5b813561350284826020860161349b565b91505092915050565b6000806000806080858703121561352557613524612e42565b5b600061353387828801613098565b945050602061354487828801613098565b935050604061355587828801612fe3565b925050606085013567ffffffffffffffff81111561357657613575612e47565b5b613582878288016134dd565b91505092959194509250565b600080600080604085870312156135a8576135a7612e42565b5b600085013567ffffffffffffffff8111156135c6576135c5612e47565b5b6135d2878288016130fc565b9450945050602085013567ffffffffffffffff8111156135f5576135f4612e47565b5b613601878288016130fc565b925092505092959194509250565b6000806040838503121561362657613625612e42565b5b600061363485828601613098565b925050602061364585828601613098565b9150509250929050565b600081519050919050565b600082825260208201905092915050565b6000819050602082019050919050565b600082825260208201905092915050565b600061369782612f07565b6136a1818561367b565b93506136b1818560208601612f23565b6136ba81612f56565b840191505092915050565b60006136d1838361368c565b905092915050565b6000602082019050919050565b60006136f18261364f565b6136fb818561365a565b93508360208202850161370d8561366b565b8060005b85811015613749578484038952815161372a85826136c5565b9450613735836136d9565b925060208a01995050600181019050613711565b50829750879550505050505092915050565b6000602082019050818103600083015261377581846136e6565b905092915050565b7f4e487b7100000000000000000000000000000000000000000000000000000000600052602260045260246000fd5b600060028204905060018216806137c457607f821691505b6020821081036137d7576137d661377d565b5b50919050565b7f4552433732313a20617070726f76616c20746f2063757272656e74206f776e6560008201527f7200000000000000000000000000000000000000000000000000000000000000602082015250565b6000613839602183612f12565b9150613844826137dd565b604082019050919050565b600060208201905081810360008301526138688161382c565b9050919050565b7f4552433732313a20617070726f76652063616c6c6572206973206e6f7420746f60008201527f6b656e206f776e6572206e6f7220617070726f76656420666f7220616c6c0000602082015250565b60006138cb603e83612f12565b91506138d68261386f565b604082019050919050565b600060208201905081810360008301526138fa816138be565b9050919050565b600081905092915050565b60006139188385613901565b93506139258385846132a3565b82840190509392505050565b600061393e82848661390c565b91508190509392505050565b7f4552433732313a2063616c6c6572206973206e6f7420746f6b656e206f776e6560008201527f72206e6f7220617070726f766564000000000000000000000000000000000000602082015250565b60006139a6602e83612f12565b91506139b18261394a565b604082019050919050565b600060208201905081810360008301526139d581613999565b9050919050565b600081905092915050565b50565b60006139f76000836139dc565b9150613a02826139e7565b600082019050919050565b6000613a18826139ea565b9150819050919050565b7f4661696c656420746f207769746864726177204d617469630000000000000000600082015250565b6000613a58601883612f12565b9150613a6382613a22565b602082019050919050565b60006020820190508181036000830152613a8781613a4b565b9050919050565b7f4552433732313a20696e76616c696420746f6b656e2049440000000000000000600082015250565b6000613ac4601883612f12565b9150613acf82613a8e565b602082019050919050565b60006020820190508181036000830152613af381613ab7565b9050919050565b7f4552433732313a2061646472657373207a65726f206973206e6f74206120766160008201527f6c6964206f776e65720000000000000000000000000000000000000000000000602082015250565b6000613b56602983612f12565b9150613b6182613afa565b604082019050919050565b60006020820190508181036000830152613b8581613b49565b9050919050565b600082905092915050565b60008190508160005260206000209050919050565b60006020601f8301049050919050565b600082821b905092915050565b600060088302613bf97fffffffffffffffffffffffffffffffffffffffffffffffffffffffffffffffff82613bbc565b613c038683613bbc565b95508019841693508086168417925050509392505050565b6000819050919050565b6000613c40613c3b613c3684612fc2565b613c1b565b612fc2565b9050919050565b6000819050919050565b613c5a83613c25565b613c6e613c6682613c47565b848454613bc9565b825550505050565b600090565b613c83613c76565b613c8e818484613c51565b505050565b5b81811015613cb257613ca7600082613c7b565b600181019050613c94565b5050565b601f821115613cf757613cc881613b97565b613cd184613bac565b81016020851015613ce0578190505b613cf4613cec85613bac565b830182613c93565b50505b505050565b600082821c905092915050565b6000613d1a60001984600802613cfc565b1980831691505092915050565b6000613d338383613d09565b9150826002028217905092915050565b613d4d8383613b8c565b67ffffffffffffffff811115613d6657613d656131f7565b5b613d7082546137ac565b613d7b828285613cb6565b6000601f831160018114613daa5760008415613d98578287013590505b613da28582613d27565b865550613e0a565b601f198416613db886613b97565b60005b82811015613de057848901358255600182019150602085019450602081019050613dbb565b86831015613dfd5784890135613df9601f891682613d09565b8355505b6001600288020188555050505b50505050505050565b6000613e1e82612f07565b613e288185613901565b9350613e38818560208601612f23565b80840191505092915050565b6000613e508285613e13565b9150613e5c8284613e13565b91508190509392505050565b6000613e748385612f12565b9350613e818385846132a3565b613e8a83612f56565b840190509392505050565b60006020820190508181036000830152613eb0818486613e68565b90509392505050565b7f4e6f7420656e6f756768204d6174696320706169640000000000000000000000600082015250565b6000613eef601583612f12565b9150613efa82613eb9565b602082019050919050565b60006020820190508181036000830152613f1e81613ee2565b9050919050565b7f2e00000000000000000000000000000000000000000000000000000000000000600082015250565b6000613f5b600183613901565b9150613f6682613f25565b600182019050919050565b60008154613f7e816137ac565b613f888186613901565b94506001821660008114613fa35760018114613fb857613feb565b60ff1983168652811515820286019350613feb565b613fc185613b97565b60005b83811015613fe357815481890152600182019150602081019050613fc4565b838801955050505b50505092915050565b600061400182858761390c565b915061400c82613f4e565b91506140188284613f71565b9150819050949350505050565b60006140318288613f71565b915061403d8287613f71565b91506140498286613f71565b91506140558285613e13565b91506140618284613f71565b91508190509695505050505050565b7f7b226e616d65223a202200000000000000000000000000000000000000000000600082015250565b60006140a6600a83613901565b91506140b182614070565b600a82019050919050565b7f222c20226465736372697074696f6e223a20224120646f6d61696e206f6e207460008201527f68652053686970204e616d652053657276696365222c2022696d616765223a2060208201527f22646174613a696d6167652f7376672b786d6c3b6261736536342c0000000000604082015250565b600061413e605b83613901565b9150614149826140bc565b605b82019050919050565b7f222c226c656e677468223a220000000000000000000000000000000000000000600082015250565b600061418a600c83613901565b915061419582614154565b600c82019050919050565b7f227d000000000000000000000000000000000000000000000000000000000000600082015250565b60006141d6600283613901565b91506141e1826141a0565b600282019050919050565b60006141f782614099565b91506142038286613e13565b915061420e82614131565b915061421a8285613e13565b91506142258261417d565b91506142318284613e13565b915061423c826141c9565b9150819050949350505050565b7f646174613a6170706c69636174696f6e2f6a736f6e3b6261736536342c000000600082015250565b600061427f601d83613901565b915061428a82614249565b601d82019050919050565b60006142a082614272565b91506142ac8284613e13565b915081905092915050565b7f4e487b7100000000000000000000000000000000000000000000000000000000600052603260045260246000fd5b7f4e487b7100000000000000000000000000000000000000000000000000000000600052601160045260246000fd5b600061432082612fc2565b91507fffffffffffffffffffffffffffffffffffffffffffffffffffffffffffffffff8203614352576143516142e6565b5b600182019050919050565b600060408201905081810360008301526143778185612f67565b9050818103602083015261438b8184612f67565b90509392505050565b7f4552433732313a207472616e736665722066726f6d20696e636f72726563742060008201527f6f776e6572000000000000000000000000000000000000000000000000000000602082015250565b60006143f0602583612f12565b91506143fb82614394565b604082019050919050565b6000602082019050818103600083015261441f816143e3565b9050919050565b7f4552433732313a207472616e7366657220746f20746865207a65726f2061646460008201527f7265737300000000000000000000000000000000000000000000000000000000602082015250565b6000614482602483612f12565b915061448d82614426565b604082019050919050565b600060208201905081810360008301526144b181614475565b9050919050565b60006144c382612fc2565b91506144ce83612fc2565b9250828210156144e1576144e06142e6565b5b828203905092915050565b60006144f782612fc2565b915061450283612fc2565b9250827fffffffffffffffffffffffffffffffffffffffffffffffffffffffffffffffff03821115614537576145366142e6565b5b828201905092915050565b7f4552433732313a20617070726f766520746f2063616c6c657200000000000000600082015250565b6000614578601983612f12565b915061458382614542565b602082019050919050565b600060208201905081810360008301526145a78161456b565b9050919050565b7f4552433732313a207472616e7366657220746f206e6f6e20455243373231526560008201527f63656976657220696d706c656d656e7465720000000000000000000000000000602082015250565b600061460a603283612f12565b9150614615826145ae565b604082019050919050565b60006020820190508181036000830152614639816145fd565b9050919050565b7f4e487b7100000000000000000000000000000000000000000000000000000000600052601260045260246000fd5b600061467a82612fc2565b915061468583612fc2565b92508261469557614694614640565b5b828204905092915050565b60006146ab82612fc2565b91506146b683612fc2565b9250826146c6576146c5614640565b5b828206905092915050565b600060808201905081810360008301526146eb8187612f67565b905081810360208301526146ff8186612f67565b905081810360408301526147138185612f67565b90506147226060830184613398565b95945050505050565b600061473682612fc2565b915061474183612fc2565b9250817fffffffffffffffffffffffffffffffffffffffffffffffffffffffffffffffff048311821515161561477a576147796142e6565b5b828202905092915050565b7f45524337323155524953746f726167653a2055524920736574206f66206e6f6e60008201527f6578697374656e7420746f6b656e000000000000000000000000000000000000602082015250565b60006147e1602e83612f12565b91506147ec82614785565b604082019050919050565b60006020820190508181036000830152614810816147d4565b9050919050565b61482082612f07565b67ffffffffffffffff811115614839576148386131f7565b5b61484382546137ac565b61484e828285613cb6565b600060209050601f831160018114614881576000841561486f578287015190505b6148798582613d27565b8655506148e1565b601f19841661488f86613b97565b60005b828110156148b757848901518255600182019150602085019450602081019050614892565b868310156148d457848901516148d0601f891682613d09565b8355505b6001600288020188555050505b505050505050565b600060608201905081810360008301526149038186612f67565b90506149126020830185613398565b81810360408301526149248184612f67565b9050949350505050565b600081519050919050565b600082825260208201905092915050565b60006149558261492e565b61495f8185614939565b935061496f818560208601612f23565b61497881612f56565b840191505092915050565b60006080820190506149986000830187613057565b6149a56020830186613057565b6149b26040830185613398565b81810360608301526149c4818461494a565b905095945050505050565b6000815190506149de81612e78565b92915050565b6000602082840312156149fa576149f9612e42565b5b6000614a08848285016149cf565b91505092915050565b7f4552433732313a206d696e7420746f20746865207a65726f2061646472657373600082015250565b6000614a47602083612f12565b9150614a5282614a11565b602082019050919050565b60006020820190508181036000830152614a7681614a3a565b9050919050565b7f4552433732313a20746f6b656e20616c7265616479206d696e74656400000000600082015250565b6000614ab3601c83612f12565b9150614abe82614a7d565b602082019050919050565b60006020820190508181036000830152614ae281614aa6565b905091905056fe0a2d2d2d2d2d2d2d2d2d2d2d2d2d2d2d2d2d2d2d2d2d2d2d2d2d2d2d2d2d2d2d2d2d2d2d2d2d2d2d2d2d2d2d2d2d2d2d2d2d2d2d2d2d2d2d2d2d2d2d2d2d2d2d2d2d2d2d2d2d2d2d2d2d2d2d2d2d2d2d2d2d2d2d2d2d2d2d2d2d2d2d2d2d2d2d2d2d2d2d2d2d2d2d2d2d2d2d2d2d2d2d2d0a4142434445464748494a4b4c4d4e4f505152535455565758595a6162636465666768696a6b6c6d6e6f707172737475767778797a303132333435363738392b2f47657474696e6720616c6c20646f6d61696e206e616d65732066726f6d20636f6e74726163742e2e2e5265676973746572696e672025732e2573207769746820746f656b6e4964202564a2646970667358221220954e8c6385adee12b4ff5982ad1e7be72e106cd95119cfda634def58b92ed6a164736f6c634300080f00333c73766720786d6c6e733d22687474703a2f2f7777772e77332e6f72672f323030302f737667222077696474683d2232373022206865696768743d22323730222066696c6c3d226e6f6e65223e3c706174682066696c6c3d2275726c282342292220643d224d302030683237307632373048307a222f3e3c646566733e3c66696c7465722069643d22412220636f6c6f722d696e746572706f6c6174696f6e2d66696c746572733d2273524742222066696c746572556e6974733d227573657253706163654f6e55736522206865696768743d22323730222077696474683d22323730223e3c666544726f70536861646f772064783d2230222064793d22312220737464446576696174696f6e3d22322220666c6f6f642d6f7061636974793d222e323235222077696474683d223230302522206865696768743d2232303025222f3e3c2f66696c7465723e3c2f646566733e203c7465787420783d2233322e352220793d223132302220666f6e742d73697a653d223936222066696c6c3d2223666666223e3c2f746578743e3c646566733e3c6c696e6561724772616469656e742069643d2242222078313d2230222079313d2230222078323d22323730222079323d2232373022206772616469656e74556e6974733d227573657253706163654f6e557365223e3c73746f702073746f702d636f6c6f723d2223663261313061222f3e3c73746f70206f66667365743d2231222073746f702d636f6c6f723d2223663231393061222073746f702d6f7061636974793d222e3939222f3e3c2f6c696e6561724772616469656e743e3c2f646566733e3c7465787420783d2233322e352220793d223233312220666f6e742d73697a653d223237222066696c6c3d2223666666222066696c7465723d2275726c282341292220666f6e742d66616d696c793d22506c7573204a616b617274612053616e732c44656a6156752053616e732c4e6f746f20436f6c6f7220456d6f6a692c4170706c6520436f6c6f7220456d6f6a692c73616e732d73657269662220666f6e742d7765696768743d22626f6c64223e",
  "linkReferences": {},
  "deployedLinkReferences": {}
}